{
  "address": "0x9690b5946d5560220727f0eA9787d81402CafDc0",
  "abi": [
    {
      "inputs": [
        {
          "internalType": "address",
          "name": "_superAdmin",
          "type": "address"
        }
      ],
      "stateMutability": "nonpayable",
      "type": "constructor"
    },
    {
      "inputs": [],
      "name": "AccessControlBadConfirmation",
      "type": "error"
    },
    {
      "inputs": [
        {
          "internalType": "address",
          "name": "account",
          "type": "address"
        },
        {
          "internalType": "bytes32",
          "name": "neededRole",
          "type": "bytes32"
        }
      ],
      "name": "AccessControlUnauthorizedAccount",
      "type": "error"
    },
    {
      "inputs": [
        {
          "internalType": "string",
          "name": "reason",
          "type": "string"
        }
      ],
      "name": "NotAllowed",
      "type": "error"
    },
    {
      "anonymous": false,
      "inputs": [
        {
          "indexed": false,
          "internalType": "string",
          "name": "name",
          "type": "string"
        }
      ],
      "name": "CohortCreated",
      "type": "event"
    },
    {
      "anonymous": false,
      "inputs": [
        {
          "indexed": true,
          "internalType": "bytes32",
          "name": "role",
          "type": "bytes32"
        },
        {
          "indexed": true,
          "internalType": "bytes32",
          "name": "previousAdminRole",
          "type": "bytes32"
        },
        {
          "indexed": true,
          "internalType": "bytes32",
          "name": "newAdminRole",
          "type": "bytes32"
        }
      ],
      "name": "RoleAdminChanged",
      "type": "event"
    },
    {
      "anonymous": false,
      "inputs": [
        {
          "indexed": true,
          "internalType": "bytes32",
          "name": "role",
          "type": "bytes32"
        },
        {
          "indexed": true,
          "internalType": "address",
          "name": "account",
          "type": "address"
        },
        {
          "indexed": true,
          "internalType": "address",
          "name": "sender",
          "type": "address"
        }
      ],
      "name": "RoleGranted",
      "type": "event"
    },
    {
      "anonymous": false,
      "inputs": [
        {
          "indexed": true,
          "internalType": "bytes32",
          "name": "role",
          "type": "bytes32"
        },
        {
          "indexed": true,
          "internalType": "address",
          "name": "account",
          "type": "address"
        },
        {
          "indexed": true,
          "internalType": "address",
          "name": "sender",
          "type": "address"
        }
      ],
      "name": "RoleRevoked",
      "type": "event"
    },
    {
      "anonymous": false,
      "inputs": [
        {
          "indexed": false,
          "internalType": "string",
          "name": "name",
          "type": "string"
        },
        {
          "indexed": false,
          "internalType": "string",
          "name": "cohort",
          "type": "string"
        }
      ],
      "name": "StudentRegistered",
      "type": "event"
    },
    {
      "inputs": [],
      "name": "ADMIN_ROLE",
      "outputs": [
        {
          "internalType": "bytes32",
          "name": "",
          "type": "bytes32"
        }
      ],
      "stateMutability": "view",
      "type": "function"
    },
    {
      "inputs": [],
      "name": "DEFAULT_ADMIN_ROLE",
      "outputs": [
        {
          "internalType": "bytes32",
          "name": "",
          "type": "bytes32"
        }
      ],
      "stateMutability": "view",
      "type": "function"
    },
    {
      "inputs": [],
      "name": "STUDENT_ROLE",
      "outputs": [
        {
          "internalType": "bytes32",
          "name": "",
          "type": "bytes32"
        }
      ],
      "stateMutability": "view",
      "type": "function"
    },
    {
      "inputs": [
        {
          "internalType": "string",
          "name": "cohort",
          "type": "string"
        },
        {
          "internalType": "string",
          "name": "name",
          "type": "string"
        },
        {
          "internalType": "string",
          "name": "email",
          "type": "string"
        },
        {
          "internalType": "string",
          "name": "blockchainExperience",
          "type": "string"
        },
        {
          "internalType": "string",
          "name": "github",
          "type": "string"
        },
        {
          "internalType": "string",
          "name": "linkedin",
          "type": "string"
        }
      ],
      "name": "addDetails",
      "outputs": [],
      "stateMutability": "nonpayable",
      "type": "function"
    },
    {
      "inputs": [
        {
          "internalType": "uint256",
          "name": "number",
          "type": "uint256"
        },
        {
          "internalType": "string",
          "name": "name",
          "type": "string"
        },
        {
          "internalType": "uint256",
          "name": "numberOfMembers",
          "type": "uint256"
        },
        {
          "internalType": "string",
          "name": "whatsappLink",
          "type": "string"
        },
        {
          "internalType": "string",
          "name": "githubLink",
          "type": "string"
        }
      ],
      "name": "createCohort",
      "outputs": [],
      "stateMutability": "nonpayable",
      "type": "function"
    },
    {
      "inputs": [
        {
          "internalType": "string",
          "name": "cohort",
          "type": "string"
        },
        {
          "internalType": "bytes",
          "name": "_curriculum",
          "type": "bytes"
        }
      ],
      "name": "createCurriculumn",
      "outputs": [],
      "stateMutability": "nonpayable",
      "type": "function"
    },
    {
      "inputs": [],
      "name": "currentCohort",
      "outputs": [
        {
          "internalType": "string",
          "name": "",
          "type": "string"
        }
      ],
      "stateMutability": "view",
      "type": "function"
    },
    {
      "inputs": [],
      "name": "getAllStudents",
      "outputs": [
        {
          "components": [
            {
              "internalType": "address",
              "name": "student",
              "type": "address"
            },
            {
              "internalType": "string",
              "name": "cohort",
              "type": "string"
            },
            {
              "internalType": "string",
              "name": "name",
              "type": "string"
            },
            {
              "internalType": "string",
              "name": "email",
              "type": "string"
            },
            {
              "internalType": "string",
              "name": "blockchainExperience",
              "type": "string"
            },
            {
              "internalType": "string",
              "name": "github",
              "type": "string"
            },
            {
              "internalType": "string",
              "name": "linkedin",
              "type": "string"
            }
          ],
          "internalType": "struct CohortForm.Form[]",
          "name": "",
          "type": "tuple[]"
        }
      ],
      "stateMutability": "view",
      "type": "function"
    },
    {
      "inputs": [
        {
          "internalType": "string",
          "name": "id",
          "type": "string"
        }
      ],
      "name": "getCohort",
      "outputs": [
        {
          "components": [
            {
              "internalType": "uint256",
              "name": "cohortNumber",
              "type": "uint256"
            },
            {
              "internalType": "string",
              "name": "name",
              "type": "string"
            },
            {
              "internalType": "uint256",
              "name": "numberOfMembers",
              "type": "uint256"
            },
            {
              "internalType": "string",
              "name": "whatsappLink",
              "type": "string"
            },
            {
              "internalType": "string",
              "name": "githubLink",
              "type": "string"
            }
          ],
          "internalType": "struct CohortForm.Cohort",
          "name": "",
          "type": "tuple"
        }
      ],
      "stateMutability": "view",
      "type": "function"
    },
    {
      "inputs": [
        {
          "internalType": "string",
          "name": "cohort",
          "type": "string"
        }
      ],
      "name": "getCurriculumn",
      "outputs": [
        {
          "internalType": "bytes",
          "name": "",
          "type": "bytes"
        }
      ],
      "stateMutability": "view",
      "type": "function"
    },
    {
      "inputs": [],
      "name": "getRegisteredCohorts",
      "outputs": [
        {
          "internalType": "string[]",
          "name": "",
          "type": "string[]"
        }
      ],
      "stateMutability": "view",
      "type": "function"
    },
    {
      "inputs": [
        {
          "internalType": "bytes32",
          "name": "role",
          "type": "bytes32"
        }
      ],
      "name": "getRoleAdmin",
      "outputs": [
        {
          "internalType": "bytes32",
          "name": "",
          "type": "bytes32"
        }
      ],
      "stateMutability": "view",
      "type": "function"
    },
    {
      "inputs": [
        {
          "internalType": "address",
          "name": "_address",
          "type": "address"
        }
      ],
      "name": "getStudentDetail",
      "outputs": [
        {
          "components": [
            {
              "internalType": "address",
              "name": "student",
              "type": "address"
            },
            {
              "internalType": "string",
              "name": "cohort",
              "type": "string"
            },
            {
              "internalType": "string",
              "name": "name",
              "type": "string"
            },
            {
              "internalType": "string",
              "name": "email",
              "type": "string"
            },
            {
              "internalType": "string",
              "name": "blockchainExperience",
              "type": "string"
            },
            {
              "internalType": "string",
              "name": "github",
              "type": "string"
            },
            {
              "internalType": "string",
              "name": "linkedin",
              "type": "string"
            }
          ],
          "internalType": "struct CohortForm.Form",
          "name": "",
          "type": "tuple"
        }
      ],
      "stateMutability": "view",
      "type": "function"
    },
    {
      "inputs": [
        {
          "internalType": "string",
          "name": "cohort",
          "type": "string"
        }
      ],
      "name": "getStudentsByCohort",
      "outputs": [
        {
          "internalType": "address[]",
          "name": "",
          "type": "address[]"
        }
      ],
      "stateMutability": "view",
      "type": "function"
    },
    {
      "inputs": [
        {
          "internalType": "bytes32",
          "name": "role",
          "type": "bytes32"
        },
        {
          "internalType": "address",
          "name": "account",
          "type": "address"
        }
      ],
      "name": "grantRole",
      "outputs": [],
      "stateMutability": "nonpayable",
      "type": "function"
    },
    {
      "inputs": [
        {
          "internalType": "bytes32",
          "name": "role",
          "type": "bytes32"
        },
        {
          "internalType": "address",
          "name": "account",
          "type": "address"
        }
      ],
      "name": "hasRole",
      "outputs": [
        {
          "internalType": "bool",
          "name": "",
          "type": "bool"
        }
      ],
      "stateMutability": "view",
      "type": "function"
    },
    {
      "inputs": [],
      "name": "owner",
      "outputs": [
        {
          "internalType": "address",
          "name": "",
          "type": "address"
        }
      ],
      "stateMutability": "view",
      "type": "function"
    },
    {
      "inputs": [
        {
          "internalType": "address",
          "name": "_address",
          "type": "address"
        }
      ],
      "name": "registerAdmin",
      "outputs": [],
      "stateMutability": "nonpayable",
      "type": "function"
    },
    {
      "inputs": [
        {
          "internalType": "uint256",
          "name": "",
          "type": "uint256"
        }
      ],
      "name": "registeredCohorts",
      "outputs": [
        {
          "internalType": "string",
          "name": "",
          "type": "string"
        }
      ],
      "stateMutability": "view",
      "type": "function"
    },
    {
      "inputs": [
        {
          "internalType": "bytes32",
          "name": "role",
          "type": "bytes32"
        },
        {
          "internalType": "address",
          "name": "callerConfirmation",
          "type": "address"
        }
      ],
      "name": "renounceRole",
      "outputs": [],
      "stateMutability": "nonpayable",
      "type": "function"
    },
    {
      "inputs": [
        {
          "internalType": "bytes32",
          "name": "role",
          "type": "bytes32"
        },
        {
          "internalType": "address",
          "name": "account",
          "type": "address"
        }
      ],
      "name": "revokeRole",
      "outputs": [],
      "stateMutability": "nonpayable",
      "type": "function"
    },
    {
      "inputs": [
        {
          "internalType": "string",
          "name": "_cohort",
          "type": "string"
        }
      ],
      "name": "setCurrentCohort",
      "outputs": [],
      "stateMutability": "nonpayable",
      "type": "function"
    },
    {
      "inputs": [],
      "name": "superAdmin",
      "outputs": [
        {
          "internalType": "address",
          "name": "",
          "type": "address"
        }
      ],
      "stateMutability": "view",
      "type": "function"
    },
    {
      "inputs": [
        {
          "internalType": "bytes4",
          "name": "interfaceId",
          "type": "bytes4"
        }
      ],
      "name": "supportsInterface",
      "outputs": [
        {
          "internalType": "bool",
          "name": "",
          "type": "bool"
        }
      ],
      "stateMutability": "view",
      "type": "function"
    },
    {
      "inputs": [
        {
          "components": [
            {
              "internalType": "address",
              "name": "sender",
              "type": "address"
            },
            {
              "internalType": "uint256",
              "name": "nonce",
              "type": "uint256"
            },
            {
              "internalType": "bytes",
              "name": "initCode",
              "type": "bytes"
            },
            {
              "internalType": "bytes",
              "name": "callData",
              "type": "bytes"
            },
            {
              "internalType": "bytes32",
              "name": "accountGasLimits",
              "type": "bytes32"
            },
            {
              "internalType": "uint256",
              "name": "preVerificationGas",
              "type": "uint256"
            },
            {
              "internalType": "bytes32",
              "name": "gasFees",
              "type": "bytes32"
            },
            {
              "internalType": "bytes",
              "name": "paymasterAndData",
              "type": "bytes"
            },
            {
              "internalType": "bytes",
              "name": "signature",
              "type": "bytes"
            }
          ],
          "internalType": "struct PackedUserOperation",
          "name": "",
          "type": "tuple"
        },
        {
          "internalType": "bytes32",
          "name": "",
          "type": "bytes32"
        },
        {
          "internalType": "uint256",
          "name": "",
          "type": "uint256"
        }
      ],
      "name": "validateUserOp",
      "outputs": [
        {
          "internalType": "uint256",
          "name": "validationData",
          "type": "uint256"
        }
      ],
      "stateMutability": "pure",
      "type": "function"
    }
  ],
  "transactionHash": "0x248bf16bd81de31cf1e5085587ed9c964dc5d203b40c89b78dfa6c68d4fb2945",
  "args": [
    "0xE265a72c0F8af149492c4d509807b97dE5E6b53B"
  ],
  "numDeployments": 2,
  "solcInputHash": "114dd26e5c61b9701b1067e67ed97224",
  "bytecode": "0x60c06040526008608090815267436f686f7274203160c01b60a0526002906200002990826200020d565b503480156200003757600080fd5b5060405162002669380380620026698339810160408190526200005a91620002d9565b60018054336001600160a01b031991821617909155600380549091166001600160a01b038316179055620000af7fa49807205ce4d355092ef5a8a18f56e8913cf4a201fbe287825b095693c2177582620000b7565b50506200030b565b6000828152602081815260408083206001600160a01b038516845290915281205460ff166200015c576000838152602081815260408083206001600160a01b03861684529091529020805460ff19166001179055620001133390565b6001600160a01b0316826001600160a01b0316847f2f8788117e7eff1d82e926ec794901d17c78024a50270940304540a733656f0d60405160405180910390a450600162000160565b5060005b92915050565b634e487b7160e01b600052604160045260246000fd5b600181811c908216806200019157607f821691505b602082108103620001b257634e487b7160e01b600052602260045260246000fd5b50919050565b601f82111562000208576000816000526020600020601f850160051c81016020861015620001e35750805b601f850160051c820191505b818110156200020457828155600101620001ef565b5050505b505050565b81516001600160401b0381111562000229576200022962000166565b62000241816200023a84546200017c565b84620001b8565b602080601f831160018114620002795760008415620002605750858301515b600019600386901b1c1916600185901b17855562000204565b600085815260208120601f198616915b82811015620002aa5788860151825594840194600190910190840162000289565b5085821015620002c95787850151600019600388901b60f8161c191681555b5050505050600190811b01905550565b600060208284031215620002ec57600080fd5b81516001600160a01b03811681146200030457600080fd5b9392505050565b61234e806200031b6000396000f3fe608060405234801561001057600080fd5b50600436106101735760003560e01c80638da5cb5b116100de578063c38c581311610097578063e0f9c97011610071578063e0f9c97014610385578063e9e309271461038d578063f7be43fb146103a2578063fe6ca320146103c957600080fd5b8063c38c58131461034c578063d547741f1461035f578063dbc425091461037257600080fd5b80638da5cb5b146102d657806391d14854146102e95780639f8b613c146102fc578063a217fddf14610311578063a5af4ae214610319578063bb807cf51461033957600080fd5b806336568abe1161013057806336568abe146102485780633f1d5ed31461025b57806342808c3b1461026e5780634444b1611461028e578063579b1327146102a157806375b238fc146102c157600080fd5b806301ffc9a7146101785780631241d4a8146101a057806319822f7c146101c0578063248a9ca3146101e557806329575f6a146102085780632f2ff15d14610233575b600080fd5b61018b610186366004611a90565b6103dc565b60405190151581526020015b60405180910390f35b6101b36101ae366004611b6d565b610413565b6040516101979190611bfa565b6101d76101ce366004611c6f565b60009392505050565b604051908152602001610197565b6101d76101f3366004611cc3565b60009081526020819052604090206001015490565b60035461021b906001600160a01b031681565b6040516001600160a01b039091168152602001610197565b610246610241366004611cf3565b61063f565b005b610246610256366004611cf3565b61066a565b610246610269366004611d1f565b6106a2565b61028161027c366004611b6d565b61083e565b6040516101979190611dbb565b61024661029c366004611dce565b6108ee565b6102b46102af366004611b6d565b61094d565b6040516101979190611e46565b6101d76000805160206122f983398151915281565b60015461021b906001600160a01b031681565b61018b6102f7366004611cf3565b6109fb565b610304610a24565b6040516101979190611e93565b6101d7600081565b61032c610327366004611ef7565b610afd565b6040516101979190611fba565b610246610347366004611b6d565b610ed2565b61024661035a366004611ef7565b610ee2565b61024661036d366004611cf3565b610f2e565b610246610380366004611fcd565b610f53565b6102816112c4565b610395611352565b60405161019791906120c2565b6101d77f36a5c4aaacb6b388bbd448bf11096b7dafc5652bcc9046084fd0e95b1fb0b2cc81565b6102816103d7366004611cc3565b61175e565b60006001600160e01b03198216637965db0b60e01b148061040d57506301ffc9a760e01b6001600160e01b03198316145b92915050565b6104456040518060a0016040528060008152602001606081526020016000815260200160608152602001606081525090565b6007826040516104559190612119565b90815260200160405180910390206040518060a00160405290816000820154815260200160018201805461048890612135565b80601f01602080910402602001604051908101604052809291908181526020018280546104b490612135565b80156105015780601f106104d657610100808354040283529160200191610501565b820191906000526020600020905b8154815290600101906020018083116104e457829003601f168201915b505050505081526020016002820154815260200160038201805461052490612135565b80601f016020809104026020016040519081016040528092919081815260200182805461055090612135565b801561059d5780601f106105725761010080835404028352916020019161059d565b820191906000526020600020905b81548152906001019060200180831161058057829003601f168201915b505050505081526020016004820180546105b690612135565b80601f01602080910402602001604051908101604052809291908181526020018280546105e290612135565b801561062f5780601f106106045761010080835404028352916020019161062f565b820191906000526020600020905b81548152906001019060200180831161061257829003601f168201915b5050505050815250509050919050565b60008281526020819052604090206001015461065a81611789565b6106648383611796565b50505050565b6001600160a01b03811633146106935760405163334bd91960e11b815260040160405180910390fd5b61069d8282611828565b505050565b6106ba6000805160206122f9833981519152336109fb565b6106df5760405162461bcd60e51b81526004016106d69061216f565b60405180910390fd5b60006040518060a00160405280878152602001868152602001858152602001848152602001838152509050600061071587611893565b905060008160405160200161072a9190612195565b60405160208183030381529060405290508260078260405161074c9190612119565b90815260405160209181900382019020825181559082015160018201906107739082612213565b5060408201516002820155606082015160038201906107929082612213565b50608082015160048201906107a79082612213565b5050600a80546001810182556000919091527fc65a7bb8d6351c1cf70c95a316cc6a92839c986682d98bc35f958f4883f9d2a80190506107e78282612213565b507ff382ecaa3fe018acdd0eb58d4042c4b7752e5e59bea33e20f5163ec0647e504f60405161082c906020808252600290820152611a5960f21b604082015260600190565b60405180910390a15050505050505050565b60606008826040516108509190612119565b9081526020016040518091039020805461086990612135565b80601f016020809104026020016040519081016040528092919081815260200182805461089590612135565b80156108e25780601f106108b7576101008083540402835291602001916108e2565b820191906000526020600020905b8154815290600101906020018083116108c557829003601f168201915b50505050509050919050565b6109066000805160206122f9833981519152336109fb565b6109225760405162461bcd60e51b81526004016106d69061216f565b806008836040516109339190612119565b9081526020016040518091039020908161069d9190612213565b60606109676000805160206122f9833981519152336109fb565b6109835760405162461bcd60e51b81526004016106d69061216f565b6006826040516109939190612119565b90815260408051918290036020908101832080548083028501830190935282845291908301828280156108e257602002820191906000526020600020905b81546001600160a01b031681526001909101906020018083116109d157505050505090505b919050565b6000918252602082815260408084206001600160a01b0393909316845291905290205460ff1690565b6060600a805480602002602001604051908101604052809291908181526020016000905b82821015610af4578382906000526020600020018054610a6790612135565b80601f0160208091040260200160405190810160405280929190818152602001828054610a9390612135565b8015610ae05780601f10610ab557610100808354040283529160200191610ae0565b820191906000526020600020905b815481529060010190602001808311610ac357829003601f168201915b505050505081526020019060010190610a48565b50505050905090565b610b466040518060e0016040528060006001600160a01b031681526020016060815260200160608152602001606081526020016060815260200160608152602001606081525090565b610b707f36a5c4aaacb6b388bbd448bf11096b7dafc5652bcc9046084fd0e95b1fb0b2cc836109fb565b610bb55760405163367dccf760e01b8152602060048201526015602482015274151a1a5cc81a5cc81b9bdd0818481cdd1d59195b9d605a1b60448201526064016106d6565b6001600160a01b03808316600090815260056020908152604091829020825160e081019093528054909316825260018301805492939291840191610bf890612135565b80601f0160208091040260200160405190810160405280929190818152602001828054610c2490612135565b8015610c715780601f10610c4657610100808354040283529160200191610c71565b820191906000526020600020905b815481529060010190602001808311610c5457829003601f168201915b50505050508152602001600282018054610c8a90612135565b80601f0160208091040260200160405190810160405280929190818152602001828054610cb690612135565b8015610d035780601f10610cd857610100808354040283529160200191610d03565b820191906000526020600020905b815481529060010190602001808311610ce657829003601f168201915b50505050508152602001600382018054610d1c90612135565b80601f0160208091040260200160405190810160405280929190818152602001828054610d4890612135565b8015610d955780601f10610d6a57610100808354040283529160200191610d95565b820191906000526020600020905b815481529060010190602001808311610d7857829003601f168201915b50505050508152602001600482018054610dae90612135565b80601f0160208091040260200160405190810160405280929190818152602001828054610dda90612135565b8015610e275780601f10610dfc57610100808354040283529160200191610e27565b820191906000526020600020905b815481529060010190602001808311610e0a57829003601f168201915b50505050508152602001600582018054610e4090612135565b80601f0160208091040260200160405190810160405280929190818152602001828054610e6c90612135565b8015610eb95780601f10610e8e57610100808354040283529160200191610eb9565b820191906000526020600020905b815481529060010190602001808311610e9c57829003601f168201915b505050505081526020016006820180546105b690612135565b6002610ede8282612213565b5050565b610efa6000805160206122f9833981519152336109fb565b610f165760405162461bcd60e51b81526004016106d69061216f565b610ede6000805160206122f983398151915282611796565b600082815260208190526040902060010154610f4981611789565b6106648383611828565b3360009081526004602052604090208054610ff69190610f7290612135565b80601f0160208091040260200160405190810160405280929190818152602001828054610f9e90612135565b8015610feb5780601f10610fc057610100808354040283529160200191610feb565b820191906000526020600020905b815481529060010190602001808311610fce57829003601f168201915b505050505087611926565b156110445760405163367dccf760e01b815260206004820152601e60248201527f596f752061726520616c726561647920696e207468697320636f686f7274000060448201526064016106d6565b6040805160e0810182523380825260208083018a81528385018a9052606084018990526080840188905260a0840187905260c0840186905260009283526005909152929020815181546001600160a01b0319166001600160a01b0390911617815591519091829160018201906110ba9082612213565b50604082015160028201906110cf9082612213565b50606082015160038201906110e49082612213565b50608082015160048201906110f99082612213565b5060a0820151600582019061110e9082612213565b5060c082015160068201906111239082612213565b509050506006876040516111379190612119565b9081526040516020918190038201902080546001808201835560009283528383209091018054336001600160a01b03199182161790915560098054928301815590925283517f6e1540171b6c0c960b71a7020d9f60077f6af931a8bbf590da0223dacf75c7af600790920291820180549093166001600160a01b039091161782559183015183927f6e1540171b6c0c960b71a7020d9f60077f6af931a8bbf590da0223dacf75c7b001906111eb9082612213565b50604082015160028201906112009082612213565b50606082015160038201906112159082612213565b506080820151600482019061122a9082612213565b5060a0820151600582019061123f9082612213565b5060c082015160068201906112549082612213565b5050506112817f36a5c4aaacb6b388bbd448bf11096b7dafc5652bcc9046084fd0e95b1fb0b2cc33611796565b507f99de9e27b7501a37ca6980ff5a350f85ee64d5242f63c8db6354390ff1bf377986886040516112b39291906122d3565b60405180910390a150505050505050565b600280546112d190612135565b80601f01602080910402602001604051908101604052809291908181526020018280546112fd90612135565b801561134a5780601f1061131f5761010080835404028352916020019161134a565b820191906000526020600020905b81548152906001019060200180831161132d57829003601f168201915b505050505081565b606061136c6000805160206122f9833981519152336109fb565b6113885760405162461bcd60e51b81526004016106d69061216f565b6009805480602002602001604051908101604052809291908181526020016000905b82821015610af45760008481526020908190206040805160e081019091526007850290910180546001600160a01b0316825260018101805492939192918401916113f390612135565b80601f016020809104026020016040519081016040528092919081815260200182805461141f90612135565b801561146c5780601f106114415761010080835404028352916020019161146c565b820191906000526020600020905b81548152906001019060200180831161144f57829003601f168201915b5050505050815260200160028201805461148590612135565b80601f01602080910402602001604051908101604052809291908181526020018280546114b190612135565b80156114fe5780601f106114d3576101008083540402835291602001916114fe565b820191906000526020600020905b8154815290600101906020018083116114e157829003601f168201915b5050505050815260200160038201805461151790612135565b80601f016020809104026020016040519081016040528092919081815260200182805461154390612135565b80156115905780601f1061156557610100808354040283529160200191611590565b820191906000526020600020905b81548152906001019060200180831161157357829003601f168201915b505050505081526020016004820180546115a990612135565b80601f01602080910402602001604051908101604052809291908181526020018280546115d590612135565b80156116225780601f106115f757610100808354040283529160200191611622565b820191906000526020600020905b81548152906001019060200180831161160557829003601f168201915b5050505050815260200160058201805461163b90612135565b80601f016020809104026020016040519081016040528092919081815260200182805461166790612135565b80156116b45780601f10611689576101008083540402835291602001916116b4565b820191906000526020600020905b81548152906001019060200180831161169757829003601f168201915b505050505081526020016006820180546116cd90612135565b80601f01602080910402602001604051908101604052809291908181526020018280546116f990612135565b80156117465780601f1061171b57610100808354040283529160200191611746565b820191906000526020600020905b81548152906001019060200180831161172957829003601f168201915b505050505081525050815260200190600101906113aa565b600a818154811061176e57600080fd5b9060005260206000200160009150905080546112d190612135565b611793813361197f565b50565b60006117a283836109fb565b611820576000838152602081815260408083206001600160a01b03861684529091529020805460ff191660011790556117d83390565b6001600160a01b0316826001600160a01b0316847f2f8788117e7eff1d82e926ec794901d17c78024a50270940304540a733656f0d60405160405180910390a450600161040d565b50600061040d565b600061183483836109fb565b15611820576000838152602081815260408083206001600160a01b0386168085529252808320805460ff1916905551339286917ff6391f5c32d9c69d2a47ea670b442974b53935d1edc7fd64eb21e047a839171b9190a450600161040d565b606060006118a0836119b8565b600101905060008167ffffffffffffffff8111156118c0576118c0611ac1565b6040519080825280601f01601f1916602001820160405280156118ea576020820181803683370190505b5090508181016020015b600019016f181899199a1a9b1b9c1cb0b131b232b360811b600a86061a8153600a85049450846118f457509392505050565b6000816040516020016119399190612119565b60405160208183030381529060405280519060200120836040516020016119609190612119565b6040516020818303038152906040528051906020012014905092915050565b61198982826109fb565b610ede5760405163e2517d3f60e01b81526001600160a01b0382166004820152602481018390526044016106d6565b60008072184f03e93ff9f4daa797ed6e38ed64bf6a1f0160401b83106119f75772184f03e93ff9f4daa797ed6e38ed64bf6a1f0160401b830492506040015b6d04ee2d6d415b85acef81000000008310611a23576d04ee2d6d415b85acef8100000000830492506020015b662386f26fc100008310611a4157662386f26fc10000830492506010015b6305f5e1008310611a59576305f5e100830492506008015b6127108310611a6d57612710830492506004015b60648310611a7f576064830492506002015b600a831061040d5760010192915050565b600060208284031215611aa257600080fd5b81356001600160e01b031981168114611aba57600080fd5b9392505050565b634e487b7160e01b600052604160045260246000fd5b600067ffffffffffffffff80841115611af257611af2611ac1565b604051601f8501601f19908116603f01168101908282118183101715611b1a57611b1a611ac1565b81604052809350858152868686011115611b3357600080fd5b858560208301376000602087830101525050509392505050565b600082601f830112611b5e57600080fd5b611aba83833560208501611ad7565b600060208284031215611b7f57600080fd5b813567ffffffffffffffff811115611b9657600080fd5b611ba284828501611b4d565b949350505050565b60005b83811015611bc5578181015183820152602001611bad565b50506000910152565b60008151808452611be6816020860160208601611baa565b601f01601f19169290920160200192915050565b60208152815160208201526000602083015160a06040840152611c2060c0840182611bce565b9050604084015160608401526060840151601f1980858403016080860152611c488383611bce565b925060808601519150808584030160a086015250611c668282611bce565b95945050505050565b600080600060608486031215611c8457600080fd5b833567ffffffffffffffff811115611c9b57600080fd5b84016101208187031215611cae57600080fd5b95602085013595506040909401359392505050565b600060208284031215611cd557600080fd5b5035919050565b80356001600160a01b03811681146109f657600080fd5b60008060408385031215611d0657600080fd5b82359150611d1660208401611cdc565b90509250929050565b600080600080600060a08688031215611d3757600080fd5b85359450602086013567ffffffffffffffff80821115611d5657600080fd5b611d6289838a01611b4d565b9550604088013594506060880135915080821115611d7f57600080fd5b611d8b89838a01611b4d565b93506080880135915080821115611da157600080fd5b50611dae88828901611b4d565b9150509295509295909350565b602081526000611aba6020830184611bce565b60008060408385031215611de157600080fd5b823567ffffffffffffffff80821115611df957600080fd5b611e0586838701611b4d565b93506020850135915080821115611e1b57600080fd5b508301601f81018513611e2d57600080fd5b611e3c85823560208401611ad7565b9150509250929050565b6020808252825182820181905260009190848201906040850190845b81811015611e875783516001600160a01b031683529284019291840191600101611e62565b50909695505050505050565b600060208083016020845280855180835260408601915060408160051b87010192506020870160005b82811015611eea57603f19888603018452611ed8858351611bce565b94509285019290850190600101611ebc565b5092979650505050505050565b600060208284031215611f0957600080fd5b611aba82611cdc565b60018060a01b0381511682526000602082015160e06020850152611f3960e0850182611bce565b905060408301518482036040860152611f528282611bce565b91505060608301518482036060860152611f6c8282611bce565b91505060808301518482036080860152611f868282611bce565b91505060a083015184820360a0860152611fa08282611bce565b91505060c083015184820360c0860152611c668282611bce565b602081526000611aba6020830184611f12565b60008060008060008060c08789031215611fe657600080fd5b863567ffffffffffffffff80821115611ffe57600080fd5b61200a8a838b01611b4d565b9750602089013591508082111561202057600080fd5b61202c8a838b01611b4d565b9650604089013591508082111561204257600080fd5b61204e8a838b01611b4d565b9550606089013591508082111561206457600080fd5b6120708a838b01611b4d565b9450608089013591508082111561208657600080fd5b6120928a838b01611b4d565b935060a08901359150808211156120a857600080fd5b506120b589828a01611b4d565b9150509295509295509295565b600060208083016020845280855180835260408601915060408160051b87010192506020870160005b82811015611eea57603f19888603018452612107858351611f12565b945092850192908501906001016120eb565b6000825161212b818460208701611baa565b9190910192915050565b600181811c9082168061214957607f821691505b60208210810361216957634e487b7160e01b600052602260045260246000fd5b50919050565b6020808252600c908201526b2737ba1030b71030b236b4b760a11b604082015260600190565b6518dbda1bdc9d60d21b8152600082516121b6816006850160208701611baa565b9190910160060192915050565b601f82111561069d576000816000526020600020601f850160051c810160208610156121ec5750805b601f850160051c820191505b8181101561220b578281556001016121f8565b505050505050565b815167ffffffffffffffff81111561222d5761222d611ac1565b6122418161223b8454612135565b846121c3565b602080601f831160018114612276576000841561225e5750858301515b600019600386901b1c1916600185901b17855561220b565b600085815260208120601f198616915b828110156122a557888601518255948401946001909101908401612286565b50858210156122c35787850151600019600388901b60f8161c191681555b5050505050600190811b01905550565b6040815260006122e66040830185611bce565b8281036020840152611c668185611bce56fea49807205ce4d355092ef5a8a18f56e8913cf4a201fbe287825b095693c21775a264697066735822122018793d75aa0c81006c9992f536820d20f76593700af87371ee50e87514c7714c64736f6c63430008170033",
  "devdoc": {
    "errors": {
      "AccessControlBadConfirmation()": [
        {
          "details": "The caller of a function is not the expected one. NOTE: Don't confuse with {AccessControlUnauthorizedAccount}."
        }
      ],
      "AccessControlUnauthorizedAccount(address,bytes32)": [
        {
          "details": "The `account` is missing a role."
        }
      ]
    },
    "events": {
      "RoleAdminChanged(bytes32,bytes32,bytes32)": {
        "details": "Emitted when `newAdminRole` is set as ``role``'s admin role, replacing `previousAdminRole` `DEFAULT_ADMIN_ROLE` is the starting admin for all roles, despite {RoleAdminChanged} not being emitted signaling this."
      },
      "RoleGranted(bytes32,address,address)": {
        "details": "Emitted when `account` is granted `role`. `sender` is the account that originated the contract call, an admin role bearer except when using {AccessControl-_setupRole}."
      },
      "RoleRevoked(bytes32,address,address)": {
        "details": "Emitted when `account` is revoked `role`. `sender` is the account that originated the contract call:   - if using `revokeRole`, it is the admin role bearer   - if using `renounceRole`, it is the role bearer (i.e. `account`)"
      }
    },
    "kind": "dev",
    "methods": {
      "addDetails(string,string,string,string,string,string)": {
        "params": {
          "blockchainExperience": "experience student has with the blockchain",
          "cohort": "cohort",
          "email": "email of student",
          "github": "github account",
          "linkedin": "linkedin profile",
          "name": "name of student"
        }
      },
      "getRoleAdmin(bytes32)": {
        "details": "Returns the admin role that controls `role`. See {grantRole} and {revokeRole}. To change a role's admin, use {_setRoleAdmin}."
      },
      "getStudentDetail(address)": {
        "params": {
          "_address": "address of student"
        }
      },
      "grantRole(bytes32,address)": {
        "details": "Grants `role` to `account`. If `account` had not been already granted `role`, emits a {RoleGranted} event. Requirements: - the caller must have ``role``'s admin role. May emit a {RoleGranted} event."
      },
      "hasRole(bytes32,address)": {
        "details": "Returns `true` if `account` has been granted `role`."
      },
      "renounceRole(bytes32,address)": {
        "details": "Revokes `role` from the calling account. Roles are often managed via {grantRole} and {revokeRole}: this function's purpose is to provide a mechanism for accounts to lose their privileges if they are compromised (such as when a trusted device is misplaced). If the calling account had been revoked `role`, emits a {RoleRevoked} event. Requirements: - the caller must be `callerConfirmation`. May emit a {RoleRevoked} event."
      },
      "revokeRole(bytes32,address)": {
        "details": "Revokes `role` from `account`. If `account` had been granted `role`, emits a {RoleRevoked} event. Requirements: - the caller must have ``role``'s admin role. May emit a {RoleRevoked} event."
      },
      "supportsInterface(bytes4)": {
        "details": "See {IERC165-supportsInterface}."
      }
    },
    "version": 1
  },
  "userdoc": {
    "errors": {
      "NotAllowed(string)": [
        {
          "notice": "reverts if an action is not allowed"
        }
      ]
    },
    "kind": "user",
    "methods": {
      "addDetails(string,string,string,string,string,string)": {
        "notice": "Add details of student"
      },
      "registerAdmin(address)": {
        "notice": "registers an admin"
      },
      "validateUserOp((address,uint256,bytes,bytes,bytes32,uint256,bytes32,bytes,bytes),bytes32,uint256)": {
        "notice": "validates user operation for the IAccount interface  user operation"
      }
    },
    "version": 1
  },
  "storageLayout": {
    "storage": [
      {
        "astId": 3727,
        "contract": "contracts/CohortForm.sol:CohortForm",
        "label": "_roles",
        "offset": 0,
        "slot": "0",
        "type": "t_mapping(t_bytes32,t_struct(RoleData)3722_storage)"
      },
      {
        "astId": 6152,
        "contract": "contracts/CohortForm.sol:CohortForm",
        "label": "owner",
        "offset": 0,
        "slot": "1",
        "type": "t_address"
      },
      {
        "astId": 6165,
        "contract": "contracts/CohortForm.sol:CohortForm",
        "label": "currentCohort",
        "offset": 0,
        "slot": "2",
        "type": "t_string_storage"
      },
      {
        "astId": 6167,
        "contract": "contracts/CohortForm.sol:CohortForm",
        "label": "superAdmin",
        "offset": 0,
        "slot": "3",
        "type": "t_address"
      },
      {
        "astId": 6197,
        "contract": "contracts/CohortForm.sol:CohortForm",
        "label": "cohorts",
        "offset": 0,
        "slot": "4",
        "type": "t_mapping(t_address,t_string_storage)"
      },
      {
        "astId": 6202,
        "contract": "contracts/CohortForm.sol:CohortForm",
        "label": "details",
        "offset": 0,
        "slot": "5",
        "type": "t_mapping(t_address,t_struct(Form)6182_storage)"
      },
      {
        "astId": 6207,
        "contract": "contracts/CohortForm.sol:CohortForm",
        "label": "studentsInCohort",
        "offset": 0,
        "slot": "6",
        "type": "t_mapping(t_string_memory_ptr,t_array(t_address)dyn_storage)"
      },
      {
        "astId": 6212,
        "contract": "contracts/CohortForm.sol:CohortForm",
        "label": "cohortMap",
        "offset": 0,
        "slot": "7",
        "type": "t_mapping(t_string_memory_ptr,t_struct(Cohort)6193_storage)"
      },
      {
        "astId": 6216,
        "contract": "contracts/CohortForm.sol:CohortForm",
        "label": "curriculum",
        "offset": 0,
        "slot": "8",
        "type": "t_mapping(t_string_memory_ptr,t_bytes_storage)"
      },
      {
        "astId": 6220,
        "contract": "contracts/CohortForm.sol:CohortForm",
        "label": "allStudents",
        "offset": 0,
        "slot": "9",
        "type": "t_array(t_struct(Form)6182_storage)dyn_storage"
      },
      {
        "astId": 6223,
        "contract": "contracts/CohortForm.sol:CohortForm",
        "label": "registeredCohorts",
        "offset": 0,
        "slot": "10",
        "type": "t_array(t_string_storage)dyn_storage"
      }
    ],
    "types": {
      "t_address": {
        "encoding": "inplace",
        "label": "address",
        "numberOfBytes": "20"
      },
      "t_array(t_address)dyn_storage": {
        "base": "t_address",
        "encoding": "dynamic_array",
        "label": "address[]",
        "numberOfBytes": "32"
      },
      "t_array(t_string_storage)dyn_storage": {
        "base": "t_string_storage",
        "encoding": "dynamic_array",
        "label": "string[]",
        "numberOfBytes": "32"
      },
      "t_array(t_struct(Form)6182_storage)dyn_storage": {
        "base": "t_struct(Form)6182_storage",
        "encoding": "dynamic_array",
        "label": "struct CohortForm.Form[]",
        "numberOfBytes": "32"
      },
      "t_bool": {
        "encoding": "inplace",
        "label": "bool",
        "numberOfBytes": "1"
      },
      "t_bytes32": {
        "encoding": "inplace",
        "label": "bytes32",
        "numberOfBytes": "32"
      },
      "t_bytes_storage": {
        "encoding": "bytes",
        "label": "bytes",
        "numberOfBytes": "32"
      },
      "t_mapping(t_address,t_bool)": {
        "encoding": "mapping",
        "key": "t_address",
        "label": "mapping(address => bool)",
        "numberOfBytes": "32",
        "value": "t_bool"
      },
      "t_mapping(t_address,t_string_storage)": {
        "encoding": "mapping",
        "key": "t_address",
        "label": "mapping(address => string)",
        "numberOfBytes": "32",
        "value": "t_string_storage"
      },
      "t_mapping(t_address,t_struct(Form)6182_storage)": {
        "encoding": "mapping",
        "key": "t_address",
        "label": "mapping(address => struct CohortForm.Form)",
        "numberOfBytes": "32",
        "value": "t_struct(Form)6182_storage"
      },
      "t_mapping(t_bytes32,t_struct(RoleData)3722_storage)": {
        "encoding": "mapping",
        "key": "t_bytes32",
        "label": "mapping(bytes32 => struct AccessControl.RoleData)",
        "numberOfBytes": "32",
        "value": "t_struct(RoleData)3722_storage"
      },
      "t_mapping(t_string_memory_ptr,t_array(t_address)dyn_storage)": {
        "encoding": "mapping",
        "key": "t_string_memory_ptr",
        "label": "mapping(string => address[])",
        "numberOfBytes": "32",
        "value": "t_array(t_address)dyn_storage"
      },
      "t_mapping(t_string_memory_ptr,t_bytes_storage)": {
        "encoding": "mapping",
        "key": "t_string_memory_ptr",
        "label": "mapping(string => bytes)",
        "numberOfBytes": "32",
        "value": "t_bytes_storage"
      },
      "t_mapping(t_string_memory_ptr,t_struct(Cohort)6193_storage)": {
        "encoding": "mapping",
        "key": "t_string_memory_ptr",
        "label": "mapping(string => struct CohortForm.Cohort)",
        "numberOfBytes": "32",
        "value": "t_struct(Cohort)6193_storage"
      },
      "t_string_memory_ptr": {
        "encoding": "bytes",
        "label": "string",
        "numberOfBytes": "32"
      },
      "t_string_storage": {
        "encoding": "bytes",
        "label": "string",
        "numberOfBytes": "32"
      },
      "t_struct(Cohort)6193_storage": {
        "encoding": "inplace",
        "label": "struct CohortForm.Cohort",
        "members": [
          {
            "astId": 6184,
            "contract": "contracts/CohortForm.sol:CohortForm",
            "label": "cohortNumber",
            "offset": 0,
            "slot": "0",
            "type": "t_uint256"
          },
          {
            "astId": 6186,
            "contract": "contracts/CohortForm.sol:CohortForm",
            "label": "name",
            "offset": 0,
            "slot": "1",
            "type": "t_string_storage"
          },
          {
            "astId": 6188,
            "contract": "contracts/CohortForm.sol:CohortForm",
            "label": "numberOfMembers",
            "offset": 0,
            "slot": "2",
            "type": "t_uint256"
          },
          {
            "astId": 6190,
            "contract": "contracts/CohortForm.sol:CohortForm",
            "label": "whatsappLink",
            "offset": 0,
            "slot": "3",
            "type": "t_string_storage"
          },
          {
            "astId": 6192,
            "contract": "contracts/CohortForm.sol:CohortForm",
            "label": "githubLink",
            "offset": 0,
            "slot": "4",
            "type": "t_string_storage"
          }
        ],
        "numberOfBytes": "160"
      },
      "t_struct(Form)6182_storage": {
        "encoding": "inplace",
        "label": "struct CohortForm.Form",
        "members": [
          {
            "astId": 6169,
            "contract": "contracts/CohortForm.sol:CohortForm",
            "label": "student",
            "offset": 0,
            "slot": "0",
            "type": "t_address"
          },
          {
            "astId": 6171,
            "contract": "contracts/CohortForm.sol:CohortForm",
            "label": "cohort",
            "offset": 0,
            "slot": "1",
            "type": "t_string_storage"
          },
          {
            "astId": 6173,
            "contract": "contracts/CohortForm.sol:CohortForm",
            "label": "name",
            "offset": 0,
            "slot": "2",
            "type": "t_string_storage"
          },
          {
            "astId": 6175,
            "contract": "contracts/CohortForm.sol:CohortForm",
            "label": "email",
            "offset": 0,
            "slot": "3",
            "type": "t_string_storage"
          },
          {
            "astId": 6177,
            "contract": "contracts/CohortForm.sol:CohortForm",
            "label": "blockchainExperience",
            "offset": 0,
            "slot": "4",
            "type": "t_string_storage"
          },
          {
            "astId": 6179,
            "contract": "contracts/CohortForm.sol:CohortForm",
            "label": "github",
            "offset": 0,
            "slot": "5",
            "type": "t_string_storage"
          },
          {
            "astId": 6181,
            "contract": "contracts/CohortForm.sol:CohortForm",
            "label": "linkedin",
            "offset": 0,
            "slot": "6",
            "type": "t_string_storage"
          }
        ],
        "numberOfBytes": "224"
      },
      "t_struct(RoleData)3722_storage": {
        "encoding": "inplace",
        "label": "struct AccessControl.RoleData",
        "members": [
          {
            "astId": 3719,
            "contract": "contracts/CohortForm.sol:CohortForm",
            "label": "hasRole",
            "offset": 0,
            "slot": "0",
            "type": "t_mapping(t_address,t_bool)"
          },
          {
            "astId": 3721,
            "contract": "contracts/CohortForm.sol:CohortForm",
            "label": "adminRole",
            "offset": 0,
            "slot": "1",
            "type": "t_bytes32"
          }
        ],
        "numberOfBytes": "64"
      },
      "t_uint256": {
        "encoding": "inplace",
        "label": "uint256",
        "numberOfBytes": "32"
      }
    }
  }
}