{
  "address": "0xc1a373dd12B50dA62B9878Eea017268CE3A8Ef28",
  "abi": [
    {
      "inputs": [],
      "stateMutability": "nonpayable",
      "type": "constructor"
    },
    {
      "inputs": [
        {
          "internalType": "enum Paymaster.PostOpMode",
          "name": "mode",
          "type": "uint8"
        },
        {
          "internalType": "bytes",
          "name": "context",
          "type": "bytes"
        },
        {
          "internalType": "uint256",
          "name": "actualGasCost",
          "type": "uint256"
        }
      ],
      "name": "postOp",
      "outputs": [],
      "stateMutability": "nonpayable",
      "type": "function"
    },
    {
      "inputs": [
        {
          "components": [
            {
              "internalType": "address",
              "name": "sender",
              "type": "address"
            },
            {
              "internalType": "uint256",
              "name": "nonce",
              "type": "uint256"
            },
            {
              "internalType": "bytes",
              "name": "initCode",
              "type": "bytes"
            },
            {
              "internalType": "bytes",
              "name": "callData",
              "type": "bytes"
            },
            {
              "internalType": "bytes32",
              "name": "accountGasLimits",
              "type": "bytes32"
            },
            {
              "internalType": "uint256",
              "name": "preVerificationGas",
              "type": "uint256"
            },
            {
              "internalType": "bytes32",
              "name": "gasFees",
              "type": "bytes32"
            },
            {
              "internalType": "bytes",
              "name": "paymasterAndData",
              "type": "bytes"
            },
            {
              "internalType": "bytes",
              "name": "signature",
              "type": "bytes"
            }
          ],
          "internalType": "struct PackedUserOperation",
          "name": "",
          "type": "tuple"
        },
        {
          "internalType": "bytes32",
          "name": "",
          "type": "bytes32"
        },
        {
          "internalType": "uint256",
          "name": "",
          "type": "uint256"
        }
      ],
      "name": "validatePaymasterUserOp",
      "outputs": [
        {
          "internalType": "bytes",
          "name": "context",
          "type": "bytes"
        },
        {
          "internalType": "uint256",
          "name": "validationData",
          "type": "uint256"
        }
      ],
      "stateMutability": "pure",
      "type": "function"
    }
  ],
  "transactionHash": "0x2716f003eafa4d6a51c6e9ed0870d733bd33585f2e1ad77c23361c28002ae79e",
  "args": [],
  "numDeployments": 1,
  "solcInputHash": "026ef255cb15dfb47a222da207e4dd13",
  "bytecode": "0x608060405234801561001057600080fd5b506101fc806100206000396000f3fe608060405234801561001057600080fd5b50600436106100365760003560e01c806352b7512c1461003b578063a9a2340914610078575b600080fd5b61006161004936600461008e565b50506040805160008082526020820190925292909150565b60405161006f9291906100e2565b60405180910390f35b61008c610086366004610137565b50505050565b005b6000806000606084860312156100a357600080fd5b833567ffffffffffffffff8111156100ba57600080fd5b840161012081870312156100cd57600080fd5b95602085013595506040909401359392505050565b604081526000835180604084015260005b8181101561011057602081870181015160608684010152016100f3565b506000606082850101526060601f19601f8301168401019150508260208301529392505050565b6000806000806060858703121561014d57600080fd5b84356003811061015c57600080fd5b9350602085013567ffffffffffffffff8082111561017957600080fd5b818701915087601f83011261018d57600080fd5b81358181111561019c57600080fd5b8860208285010111156101ae57600080fd5b9598602092909201975094956040013594509250505056fea264697066735822122089d8ab3c556441d8a0ccf18bc07ba959b376c199f2740815d52035f80a15e64564736f6c63430008170033",
  "devdoc": {
    "kind": "dev",
    "methods": {},
    "version": 1
  },
  "userdoc": {
    "kind": "user",
    "methods": {},
    "version": 1
  },
  "storageLayout": {
    "storage": [],
    "types": null
  }
}